:03000000020B747C
:100B740078FFE4F6D8FD9000007F007E02E4F0A345
:0A0B8400DFFCDEFA758107020BC9E1
:100E510042003F0000420042000042000000004802
:100E610000350001000200040008420033000F4277
:040E7100003D000040
:040EAD0075E7FF22C4
:100D50007B017A007903E490004BF0A3F07D0AFC5C
:100D6000AF05EC8FF0120D9D90004BE0FEA3E0FF6D
:100D7000900002EE8FF0120DBC900006EE8FF01284
:100D80000DBC900004EE8FF0120DBC900008E4F54D
:0D0D9000F0120DBC90000AE4F5F0020DBC5D
:100E1E00120D507A00790F90004BE4F0A37405F098
:100E2E00120D607A00791B90004BE4F0A37405F06C
:100E3E00120D607A00792790004BE4F0A37405F050
:030E4E00020D6032
:050C7E000D7F027E0065
:100C8300900048ECF0A3EDF04C701BEFF4FDEEF494
:100C9300FC900042E05CF0A3E05DF090003FE05C7C
:100CA300F0A3E05DF022900048E07004A3E064024A
:100CB300701B90003FE04EF0A3E04FF0EFF4FFEE27
:100CC300F4FE900042E05EF0A3E05FF022EFF4FD5B
:100CD300EEF4FC90003FE05CF0A3E05DF090004296
:080CE300E04EF0A3E04FF02207
:100CEB00900005E0FEA3E0FFC390000CE09FEE64D4
:100CFB0080F890000BE0648098500A900034E0304C
:100D0B00E00375982090000CE004F0700690000B47
:100D1B00E004F0900003E0FEA3E0FFC390000CE0C2
:100D2B009FEE6480F890000BE06480984016E4F02E
:100D3B00A3F0900009E0FFA3E0900005CFF0A3EF34
:050D4B00F0E4F5982220
:10080000E4900041F0900011E0FEA3E0FFC39000EF
:1008100018E09FEE6480F8900017E0648098500E16
:10082000900034E030E107900041E04402F0900095
:1008300018E004F07006900017E004F090000FE05C
:10084000FEA3E0FFC3900018E09FEE6480F89000E4
:1008500017E06480984013E4F0A3F0900015E0FFE7
:10086000A3E0900011CFF0A3EFF090001DE0FEA3F5
:10087000E0FFC3900024E09FEE6480F8900023E046
:10088000648098500E900034E030E207900041E020
:100890004404F0900024E004F07006900023E0048B
:1008A000F090001BE0FEA3E0FFC3900024E09FEE69
:1008B0006480F8900023E06480984013E4F0A3F093
:1008C000900021E0FFA3E090001DCFF0A3EFF09097
:1008D0000029E0FEA3E0FFC3900030E09FEE6480BB
:1008E000F890002FE0648098500E900034E030E3E0
:1008F00007900041E04408F0900030E004F07006FA
:1009000090002FE004F0900027E0FEA3E0FFC390EA
:100910000030E09FEE6480F890002FE06480984003
:1009200013E4F0A3F090002DE0FFA3E0900029CFA6
:10093000F0A3EFF0900041E044F1F0E58854F0902E
:100940000002F0900041E0F4FF900002E04FF588D3
:010950002284
:050C0E00FC74FFFFFE75
:100C1300EFF47002EEF46011EF4E9000346006E0E2
:100C23004401F08004E054FEF0EDF47002ECF46053
:100C330011ED4C9000346006E04402F08004E0546F
:100C4300FDF0EBF47002EAF46011EB4A90003460BB
:100C530006E04404F08004E054FBF090004EE0FE14
:100C6300A3E0FFF47002EEF46010EF4E90003460E6
:0B0C730005E04408F022E054F7F022F6
:100E7600E4FDFC7F01FE120C83E4FDFC7F02FE1202
:100E86000C83E4FDFC7F04FE120C83E4FDFC7F086A
:040E9600FE020C83C9
:100A0800E5E7540F701B53880F74FF90004EF0A356
:100A1800F0FBFAFDFCE4FFFE120C13120D50020A63
:100A2800BA74FF90004EF0A3F0FBFAFDFC7F017E44
:100A380000120C13438820E5E7540F6401700F7B04
:100A4800017A00790390004BF0A374068043E5E730
:100A5800540F6402700F7B017A00790390004BF009
:100A6800A37407802CE5E7540F6403700F7B017AA9
:100A780000790390004BF0A374088015E5E7540F44
:100A8800640470127B017A00790390004BF0A37420
:100A980009F07D0A8017E5E7540F640570147B019F
:100AA8007A00790390004BF0A3740AF0FD7C0012E1
:060AB8000D60120EAD22DC
:100ABE00900046EEF0A3EFF04E700D90004EF0A3B6
:100ACE00F07B01FA7D018051900046E07004A3E0B6
:100ADE006401700E90004EF0A304F0E4FBFA7D0169
:100AEE008017900046E07004A3E064027015900039
:100AFE004EF0A304F0E4FBFAFD120C0E120C7E7DF8
:100B0E0001804B900046E07004A3E06403701F90D8
:100B1E00004EF0A3F07B01FAFD120C0E120C7E7D3E
:100B2E00027C007F047E00120C837D01802B9000DE
:100B3E0046E07004A3E06404702B90004EF0A30412
:100B4E00F0FB7A00E4FD120C0E120C7E7D027C008E
:100B5E007F047E00120C837D027C007F087E0012D3
:060B6E000C83120EAD2203
:100E9A0075E30275E20643E30DE4F5E475E60C75C5
:030EAA00E56022DE
:010EB100221E
:100DE90075A1FFE4F5ACF591F5DEF58075B1FFF578
:100DF900ADF592F5DFF58875B9DFF5AEF593F590A8
:100E090075C1FDF5AFF594F598F5D3F5D5F5D4F59C
:050E1900D675D701228F
:1009510053A87F120DE9120EB1120E9A90004EE4C7
:10096100F0A304F0FB7A00FD7C00E4FFFE120C13FF
:10097100120E1E120CEB12080043A88075E7FF123D
:100981000E76E5E7540FC3940674809480500312E9
:100991000A08E5E754F0FFC4540FC394057480942A
:1009A100805036E5E754F0FFC4540F146012146010
:1009B1001514601814601B2404701EE4FFFE8016D9
:1009C1007F017E0080107F027E00800A7F037E000F
:1009D10080047F047E00120ABEE4900044F0A3F07C
:1009E100C3900045E0940A900044E06480948050F4
:1009F10091120CEB120800900045E004F070E190B8
:070A01000044E004F080D97D
:100B8E00020951E493A3F8E493A34003F68001F223
:100B9E0008DFF48029E493A3F85407240CC8C33368
:100BAE00C4540F4420C8834004F456800146F6DF37
:100BBE00E4800B0102040810204080900E51E47E68
:100BCE00019360BCA3FF543F30E509541FFEE4932C
:100BDE00A360010ECF54C025E060A840B8E493A3F3
:100BEE00FAE493A3F8E493A3C8C582C8CAC583CA1E
:100BFE00F0A3C8C582C8CAC583CADFE9DEE780BED6
:010E7500007C
:100D9D00BB010A89828A83F0E5F0A3F0225006F7A1
:0F0DAD0009A7F01922BBFE06F3E5F009F319229E
:100DBC00F8BB0111E58229F582E5833AF583E8F069
:100DCC00E5F0A3F0225009E92582C8F608A6F02226
:0D0DDC00BBFE09E92582C8F2E5F008F2220D
:00000001FF
