:03000000020AD51C
:100AD50078FFE4F6D8FD9000007F007E02E4F0A3E5
:0A0AE500DFFCDEFA758107020B2A20
:100E520042004000004200430000420000000048FF
:100E620000360001000200040008420034000F4274
:040E7200003E00003E
:040EAE0075E7FF22C3
:100D4F007B017A007904E490004AF0A3F07D0AFC5D
:100D5F00AF05EC8FF0120D9C90004AE0FEA3E0FF70
:100D6F00900002EE8FF0120DBB900006EE8FF01286
:100D7F000DBB900004EE8FF0120DBB900008E4F550
:0D0D8F00F0120DBB90000AE4F5F0020DBB60
:100DE800120D4F7A00791090004AE4F0A37404F0D1
:100DF8007D0C120D5F7A00791C90004AE4F0A37410
:100E080008F0120D5F7A00792890004AE4F0A37484
:050E18000CF0020D5F6B
:050CE2000D7F027E0001
:100CE700900047ECF0A3EDF04C701BEFF4FDEEF431
:100CF700FC900043E05CF0A3E05DF0900040E05C16
:100D0700F0A3E05DF022900047E07004A3E06402E6
:100D1700701B900040E04EF0A3E04FF0EFF4FFEEC1
:100D2700F4FE900043E05EF0A3E05FF022EFF4FDF5
:100D3700EEF4FC900040E05CF0A3E05DF09000432F
:080D4700E04EF0A3E04FF022A2
:100C0000E4900002F0900006E0FEA3E0FFC3900035
:100C10000DE09FEE6480F890000CE0648098501224
:100C2000900035E030E00B900002E04420F0429864
:100C300080035398DF90000DE004F0700690000CE4
:100C4000E004F0900004E0FEA3E0FFC390000DE09C
:100C50009FEE6480F890000CE06480984013E4F00C
:100C6000A3F090000AE0FFA3E0900006CFF0A3EF0E
:020C7000F02270
:10080000E4900042F0900012E0FEA3E0FFC39000ED
:1008100019E09FEE6480F8900018E0648098500E14
:10082000900035E030E107900042E04402F0900093
:1008300019E004F07006900018E004F0900010E059
:10084000FEA3E0FFC3900019E09FEE6480F89000E3
:1008500018E06480984013E4F0A3F0900016E0FFE5
:10086000A3E0900012CFF0A3EFF090001EE0FEA3F3
:10087000E0FF900024E0FCA3E0FDC39FEE6480F85D
:10088000EC6480985019900035E030E212C3ED948A
:1008900004EC648094804007900042E04404F090AF
:1008A0000025E004F07006900024E004F090001CA5
:1008B000E0FEA3E0FFC3900025E09FEE6480F89087
:1008C0000024E06480984013E4F0A3F0900022E05C
:1008D000FFA3E090001ECFF0A3EFF090002AE0FE0F
:1008E000A3E0FF900030E0FCA3E0FDC39FEE648036
:1008F000F8EC6480985019900035E030E312C3EDB5
:100900009408EC648094804007900042E04408F032
:10091000900031E004F07006900030E004F09000A8
:1009200028E0FEA3E0FFC3900031E09FEE6480F872
:10093000900030E06480984013E4F0A3F090002E23
:10094000E0FFA3E090002ACFF0A3EFF0900042E098
:1009500044F1F0E58854F0900003F0900042E0F498
:09096000FF900003E04FF588222E
:050C7200FC74FFFFFE11
:100C7700EFF47002EEF46011EF4E9000356006E07D
:100C87004401F08004E054FEF0EDF47002ECF460EF
:100C970011ED4C9000356006E04402F08004E0540A
:100CA700FDF0EBF47002EAF46011EB4A9000356056
:100CB70006E04404F08004E054FBF090004DE0FEB1
:100CC700A3E0FFF47002EEF46010EF4E9000356081
:0B0CD70005E04408F022E054F7F02292
:100E7700E4FDFC7F01FE120CE7E4FDFC7F02FE129D
:100E87000CE7E4FDFC7F04FE120CE7E4FDFC7F08A1
:040E9700FE020CE764
:10096900E5E7540F701B53880F74FF90004DF0A3F7
:10097900F0FBFAFDFCE4FFFE120C77120D4F020AA0
:100989001B74FF90004DF0A3F0FBFAFDFC7F017E84
:1009990000120C77438820E5E7540F6401700F7B40
:1009A900017A00790490004AF0A374068043E5E7D0
:1009B900540F6402700F7B017A00790490004AF0A9
:1009C900A37407802CE5E7540F6403700F7B017A49
:1009D90000790490004AF0A374088015E5E7540FE4
:1009E900640470127B017A00790490004AF0A374C0
:1009F90009F07D0A8017E5E7540F640570147B013F
:100A09007A00790490004AF0A3740AF0FD7C001280
:060A19000D5F120EAE227B
:100A1F00900045EEF0A3EFF04E700D90004DF0A357
:100A2F00F07B01FA7D018051900045E07004A3E056
:100A3F006401700E90004DF0A304F0E4FBFA7D0109
:100A4F008017900045E07004A3E0640270159000D9
:100A5F004DF0A304F0E4FBFAFD120C72120CE27DD0
:100A6F0001804B900045E07004A3E06403701F9079
:100A7F00004DF0A3F07B01FAFD120C72120CE27D17
:100A8F00027C007F047E00120CE77D01802B90001A
:100A9F0045E07004A3E06404702B90004DF0A304B4
:100AAF00F0FB7A00E4FD120C72120CE27D027C0066
:100ABF007F047E00120CE77D027C007F087E00120F
:060ACF000CE7120EAE223E
:100E9B0075E30275E20643E30DE4F5E475E60C75C4
:030EAB00E56022DD
:010EB200221D
:100E1D0075A1FFE4F5ACF591F5DEF58075B1FFF543
:100E2D00ADF592F5DFF58875B9DFF5AEF593F59073
:100E3D0075C1FDF5AFF594F598F5D3F5D5F5D4F568
:050E4D00D675D701225B
:100B6F0053A87F120E1D120EB2120E9B90004DE471
:100B7F00F0A304F0FB7A00FD7C00E4FFFE120C777B
:100B8F00120DE8120C0012080043A88075E7FF123F
:100B9F000E77E5E7540FC3940674809480500312C8
:100BAF000969E5E754F0FFC4540FC39405748094AA
:100BBF00805036E5E754F0FFC4540F1460121460F0
:100BCF001514601814601B2404701EE4FFFE8016B9
:100BDF007F017E0080107F027E00800A7F037E00EF
:100BEF0080047F047E00120A1F120C00120800807E
:010BFF00A154
:100AEF00020B6FE493A3F8E493A34003F68001F2A3
:100AFF0008DFF48029E493A3F85407240CC8C33308
:100B0F00C4540F4420C8834004F456800146F6DFD6
:100B1F00E4800B0102040810204080900E52E47E06
:100B2F00019360BCA3FF543F30E509541FFEE493CB
:100B3F00A360010ECF54C025E060A840B8E493A392
:100B4F00FAE493A3F8E493A3C8C582C8CAC583CABD
:100B5F00F0A3C8C582C8CAC583CADFE9DEE780BE75
:010E7600007B
:100D9C00BB010A89828A83F0E5F0A3F0225006F7A2
:0F0DAC0009A7F01922BBFE06F3E5F009F319229F
:100DBB00F8BB0111E58229F582E5833AF583E8F06A
:100DCB00E5F0A3F0225009E92582C8F608A6F02227
:0D0DDB00BBFE09E92582C8F2E5F008F2220E
:00000001FF
